:020000000328D3
:10000600033083120313A2000C30A3003030A40087
:10001600C030A5003030A6000C30A700A801A90109
:1000260083160317880189018312871388138316A1
:100036000313860183128601F101F20180307206F4
:10004600F00080307002031D2A2806307102031862
:1000560043287108223E8400000886000B30FB000E
:100066002630FC005D30FD00FD0B3728FC0B3728E1
:10007600FB0B372800000000F10A0319F20A2128B9
:040086001F284428C3
:04400E00F22F000786
:00000001FF
