:0200000048288E
:1000060083120313F8010830FC00700DF80D740814
:10001600F80203181028F8070310F00DFC0B082847
:020026000800D0
:10002800C03083120313A4000030A500F930A600E5
:100038000030A700A430A8000030A900B030AA0002
:100048000030AB009930AC000030AD009230AE000B
:100058000030AF008330B0000030B100F830B2009B
:100068000030B3008030B4000030B5009830B600DE
:100078000030B7002308F000F00D70107008243E1F
:0800880084000008F0000800EC
:10009000193083120313A200831603178801890104
:1000A0008312871388138316031386018312860134
:1000B00083160810881008118811FF3083128600FB
:1000C00008148814081588150A30F4002208F00076
:1000D00003207008A3001420700886000810073061
:1000E000FC007D30FD00FD0B7328FC0B7328081409
:1000F0000A30F4002208F00003207808F0007008AD
:10010000A30014207008860088100730FC007D30A2
:10011000FD00FD0B8928FC0B8928881464288F2892
:04400E00F22F000786
:00000001FF
