:020000000328D3
:10000600C03083120313A2000030A300F930A4000D
:100016000030A500A430A6000030A700B030A8002C
:100026000030A9009930AA000030AB009230AC0035
:100036000030AD008330AE000030AF00F830B000C5
:100046000030B1008030B2000030B3009830B40008
:100056000030B500B601B701831603178801890180
:10006600831287138813831603138601831286016E
:1000760083160810881008118811FF308312860035
:100086000810881008118811B601B70180303706AC
:10009600F00080307002031D52280A303602031821
:1000A60070283608F0003708F100F00DF10D7010D9
:1000B6007008223E8400000886000230FB0086306D
:1000C600FC009930FD00FD0B6628FC0B6628FB0B37
:0E00D6006628B60A0319B70A49284728712878
:04400E00F22F000786
:00000001FF
