:020000000328D3
:10000600013083120313A2000230A3000430A400BF
:100016000830A5001030A6002030A7004030A80008
:100026008030A9008316031788018901831287137C
:10003600881383160313860183128601F101F201E8
:1000460080307206F00080307002031D2C280830C4
:100056007102031841287108223E840000088600B8
:100066008230FC00DD30FD00FD0B3728FC0B372805
:1000760000000000F10A0319F20A23282128422869
:04400E00F22F000786
:00000001FF
